{
  "_format": "hh-sol-artifact-1",
  "contractName": "BasicDutchAuction",
  "sourceName": "contracts/BasicDutchAuction.sol",
  "abi": [
    {
      "inputs": [
        {
          "internalType": "uint256",
          "name": "_reservePrice",
          "type": "uint256"
        },
        {
          "internalType": "uint256",
          "name": "_numBlocksAuctionOpen",
          "type": "uint256"
        },
        {
          "internalType": "uint256",
          "name": "_offerPriceDecrement",
          "type": "uint256"
        },
        {
          "internalType": "string",
          "name": "_auctionName",
          "type": "string"
        }
      ],
      "stateMutability": "nonpayable",
      "type": "constructor"
    },
    {
      "anonymous": false,
      "inputs": [
        {
          "indexed": false,
          "internalType": "address",
          "name": "winner",
          "type": "address"
        },
        {
          "indexed": false,
          "internalType": "uint256",
          "name": "amount",
          "type": "uint256"
        }
      ],
      "name": "AuctionEnded",
      "type": "event"
    },
    {
      "anonymous": false,
      "inputs": [
        {
          "indexed": false,
          "internalType": "address",
          "name": "bidder",
          "type": "address"
        },
        {
          "indexed": false,
          "internalType": "uint256",
          "name": "amount",
          "type": "uint256"
        }
      ],
      "name": "BidPlaced",
      "type": "event"
    },
    {
      "anonymous": false,
      "inputs": [
        {
          "indexed": false,
          "internalType": "address",
          "name": "bidder",
          "type": "address"
        },
        {
          "indexed": false,
          "internalType": "uint256",
          "name": "amount",
          "type": "uint256"
        }
      ],
      "name": "BidRefunded",
      "type": "event"
    },
    {
      "inputs": [],
      "name": "auctionEnded",
      "outputs": [
        {
          "internalType": "bool",
          "name": "",
          "type": "bool"
        }
      ],
      "stateMutability": "view",
      "type": "function"
    },
    {
      "inputs": [],
      "name": "auctionName",
      "outputs": [
        {
          "internalType": "string",
          "name": "",
          "type": "string"
        }
      ],
      "stateMutability": "view",
      "type": "function"
    },
    {
      "inputs": [
        {
          "internalType": "address",
          "name": "",
          "type": "address"
        }
      ],
      "name": "bids",
      "outputs": [
        {
          "internalType": "uint256",
          "name": "",
          "type": "uint256"
        }
      ],
      "stateMutability": "view",
      "type": "function"
    },
    {
      "inputs": [],
      "name": "endAuction",
      "outputs": [],
      "stateMutability": "nonpayable",
      "type": "function"
    },
    {
      "inputs": [],
      "name": "endBlock",
      "outputs": [
        {
          "internalType": "uint256",
          "name": "",
          "type": "uint256"
        }
      ],
      "stateMutability": "view",
      "type": "function"
    },
    {
      "inputs": [],
      "name": "getCurrentPrice",
      "outputs": [
        {
          "internalType": "uint256",
          "name": "",
          "type": "uint256"
        }
      ],
      "stateMutability": "view",
      "type": "function"
    },
    {
      "inputs": [],
      "name": "highestBid",
      "outputs": [
        {
          "internalType": "uint256",
          "name": "",
          "type": "uint256"
        }
      ],
      "stateMutability": "view",
      "type": "function"
    },
    {
      "inputs": [],
      "name": "highestBidder",
      "outputs": [
        {
          "internalType": "address",
          "name": "",
          "type": "address"
        }
      ],
      "stateMutability": "view",
      "type": "function"
    },
    {
      "inputs": [],
      "name": "initialPrice",
      "outputs": [
        {
          "internalType": "uint256",
          "name": "",
          "type": "uint256"
        }
      ],
      "stateMutability": "view",
      "type": "function"
    },
    {
      "inputs": [],
      "name": "itemSold",
      "outputs": [
        {
          "internalType": "bool",
          "name": "",
          "type": "bool"
        }
      ],
      "stateMutability": "view",
      "type": "function"
    },
    {
      "inputs": [],
      "name": "numBlocksAuctionOpen",
      "outputs": [
        {
          "internalType": "uint256",
          "name": "",
          "type": "uint256"
        }
      ],
      "stateMutability": "view",
      "type": "function"
    },
    {
      "inputs": [],
      "name": "offerPriceDecrement",
      "outputs": [
        {
          "internalType": "uint256",
          "name": "",
          "type": "uint256"
        }
      ],
      "stateMutability": "view",
      "type": "function"
    },
    {
      "inputs": [],
      "name": "placeBid",
      "outputs": [],
      "stateMutability": "payable",
      "type": "function"
    },
    {
      "inputs": [
        {
          "internalType": "address",
          "name": "bidder",
          "type": "address"
        }
      ],
      "name": "refundBid",
      "outputs": [],
      "stateMutability": "nonpayable",
      "type": "function"
    },
    {
      "inputs": [],
      "name": "reservePrice",
      "outputs": [
        {
          "internalType": "uint256",
          "name": "",
          "type": "uint256"
        }
      ],
      "stateMutability": "view",
      "type": "function"
    },
    {
      "inputs": [],
      "name": "seller",
      "outputs": [
        {
          "internalType": "address payable",
          "name": "",
          "type": "address"
        }
      ],
      "stateMutability": "view",
      "type": "function"
    },
    {
      "inputs": [],
      "name": "startBlock",
      "outputs": [
        {
          "internalType": "uint256",
          "name": "",
          "type": "uint256"
        }
      ],
      "stateMutability": "view",
      "type": "function"
    }
  ],
  "bytecode": "0x60806040523480156200001157600080fd5b50604051620018c1380380620018c18339818101604052810190620000379190620002f2565b336000806101000a81548173ffffffffffffffffffffffffffffffffffffffff021916908373ffffffffffffffffffffffffffffffffffffffff1602179055508360018190555082600281905550816003819055506003546002546200009e9190620003b2565b600154620000ad9190620003fd565b60048190555043600581905550600254600554620000cc9190620003fd565b6006819055506000600760006101000a81548160ff0219169083151502179055506000600760016101000a81548160ff021916908315150217905550806009908162000119919062000679565b505050505062000760565b6000604051905090565b600080fd5b600080fd5b6000819050919050565b6200014d8162000138565b81146200015957600080fd5b50565b6000815190506200016d8162000142565b92915050565b600080fd5b600080fd5b6000601f19601f8301169050919050565b7f4e487b7100000000000000000000000000000000000000000000000000000000600052604160045260246000fd5b620001c8826200017d565b810181811067ffffffffffffffff82111715620001ea57620001e96200018e565b5b80604052505050565b6000620001ff62000124565b90506200020d8282620001bd565b919050565b600067ffffffffffffffff82111562000230576200022f6200018e565b5b6200023b826200017d565b9050602081019050919050565b60005b83811015620002685780820151818401526020810190506200024b565b60008484015250505050565b60006200028b620002858462000212565b620001f3565b905082815260208101848484011115620002aa57620002a962000178565b5b620002b784828562000248565b509392505050565b600082601f830112620002d757620002d662000173565b5b8151620002e984826020860162000274565b91505092915050565b600080600080608085870312156200030f576200030e6200012e565b5b60006200031f878288016200015c565b945050602062000332878288016200015c565b935050604062000345878288016200015c565b925050606085015167ffffffffffffffff81111562000369576200036862000133565b5b6200037787828801620002bf565b91505092959194509250565b7f4e487b7100000000000000000000000000000000000000000000000000000000600052601160045260246000fd5b6000620003bf8262000138565b9150620003cc8362000138565b9250828202620003dc8162000138565b91508282048414831517620003f657620003f562000383565b5b5092915050565b60006200040a8262000138565b9150620004178362000138565b925082820190508082111562000432576200043162000383565b5b92915050565b600081519050919050565b7f4e487b7100000000000000000000000000000000000000000000000000000000600052602260045260246000fd5b600060028204905060018216806200048b57607f821691505b602082108103620004a157620004a062000443565b5b50919050565b60008190508160005260206000209050919050565b60006020601f8301049050919050565b600082821b905092915050565b6000600883026200050b7fffffffffffffffffffffffffffffffffffffffffffffffffffffffffffffffff82620004cc565b620005178683620004cc565b95508019841693508086168417925050509392505050565b6000819050919050565b60006200055a620005546200054e8462000138565b6200052f565b62000138565b9050919050565b6000819050919050565b620005768362000539565b6200058e620005858262000561565b848454620004d9565b825550505050565b600090565b620005a562000596565b620005b28184846200056b565b505050565b5b81811015620005da57620005ce6000826200059b565b600181019050620005b8565b5050565b601f8211156200062957620005f381620004a7565b620005fe84620004bc565b810160208510156200060e578190505b620006266200061d85620004bc565b830182620005b7565b50505b505050565b600082821c905092915050565b60006200064e600019846008026200062e565b1980831691505092915050565b60006200066983836200063b565b9150826002028217905092915050565b620006848262000438565b67ffffffffffffffff811115620006a0576200069f6200018e565b5b620006ac825462000472565b620006b9828285620005de565b600060209050601f831160018114620006f15760008415620006dc578287015190505b620006e885826200065b565b86555062000758565b601f1984166200070186620004a7565b60005b828110156200072b5784890151825560018201915060208501945060208101905062000704565b868310156200074b578489015162000747601f8916826200063b565b8355505b6001600288020188555050505b505050505050565b61115180620007706000396000f3fe6080604052600436106100fe5760003560e01c80638643337411610095578063d57bde7911610064578063d57bde7914610317578063db2e1eed14610342578063eb91d37e1461036d578063ecfc7ecc14610398578063fe67a54b146103a2576100fe565b8063864333741461026b57806391f9015714610296578063c63d99db146102c1578063d3642a88146102ec576100fe565b8063385e3155116100d1578063385e3155146101af578063438e897a146101d857806348cd4cb11461020357806362ea82db1461022e576100fe565b8063083c63231461010357806308551a531461012e5780631d0806ae146101595780633103ea6214610184575b600080fd5b34801561010f57600080fd5b506101186103b9565b6040516101259190610b56565b60405180910390f35b34801561013a57600080fd5b506101436103bf565b6040516101509190610bb2565b60405180910390f35b34801561016557600080fd5b5061016e6103e3565b60405161017b9190610b56565b60405180910390f35b34801561019057600080fd5b506101996103e9565b6040516101a69190610b56565b60405180910390f35b3480156101bb57600080fd5b506101d660048036038101906101d19190610c10565b6103ef565b005b3480156101e457600080fd5b506101ed61057e565b6040516101fa9190610c58565b60405180910390f35b34801561020f57600080fd5b50610218610591565b6040516102259190610b56565b60405180910390f35b34801561023a57600080fd5b5061025560048036038101906102509190610c10565b610597565b6040516102629190610b56565b60405180910390f35b34801561027757600080fd5b506102806105af565b60405161028d9190610c58565b60405180910390f35b3480156102a257600080fd5b506102ab6105c2565b6040516102b89190610c82565b60405180910390f35b3480156102cd57600080fd5b506102d66105e8565b6040516102e39190610d2d565b60405180910390f35b3480156102f857600080fd5b50610301610676565b60405161030e9190610b56565b60405180910390f35b34801561032357600080fd5b5061032c61067c565b6040516103399190610b56565b60405180910390f35b34801561034e57600080fd5b50610357610682565b6040516103649190610b56565b60405180910390f35b34801561037957600080fd5b50610382610688565b60405161038f9190610b56565b60405180910390f35b6103a06106c8565b005b3480156103ae57600080fd5b506103b76108f2565b005b60065481565b60008054906101000a900473ffffffffffffffffffffffffffffffffffffffff1681565b60045481565b60025481565b6000600a60008373ffffffffffffffffffffffffffffffffffffffff1673ffffffffffffffffffffffffffffffffffffffff1681526020019081526020016000205411610471576040517f08c379a000000000000000000000000000000000000000000000000000000000815260040161046890610d9b565b60405180910390fd5b6000600a60008373ffffffffffffffffffffffffffffffffffffffff1673ffffffffffffffffffffffffffffffffffffffff1681526020019081526020016000205490506000600a60008473ffffffffffffffffffffffffffffffffffffffff1673ffffffffffffffffffffffffffffffffffffffff168152602001908152602001600020819055507f8377883650d2137d6e6d67bcf2dbb9b1dab287d68240a17ff910b9fb7a0ad5ff828260405161052b929190610dbb565b60405180910390a18173ffffffffffffffffffffffffffffffffffffffff166108fc829081150290604051600060405180830381858888f19350505050158015610579573d6000803e3d6000fd5b505050565b600760019054906101000a900460ff1681565b60055481565b600a6020528060005260406000206000915090505481565b600760009054906101000a900460ff1681565b600760029054906101000a900473ffffffffffffffffffffffffffffffffffffffff1681565b600980546105f590610e13565b80601f016020809104026020016040519081016040528092919081815260200182805461062190610e13565b801561066e5780601f106106435761010080835404028352916020019161066e565b820191906000526020600020905b81548152906001019060200180831161065157829003601f168201915b505050505081565b60035481565b60085481565b60015481565b60008043905060006005548261069e9190610e73565b90506000600354826106b09190610ea7565b9050806004546106c09190610e73565b935050505090565b600760009054906101000a900460ff1615610718576040517f08c379a000000000000000000000000000000000000000000000000000000000815260040161070f90610f35565b60405180910390fd5b6000341161075b576040517f08c379a000000000000000000000000000000000000000000000000000000000815260040161075290610fc7565b60405180910390fd5b6000610765610688565b90506008543410156107ac576040517f08c379a00000000000000000000000000000000000000000000000000000000081526004016107a390611059565b60405180910390fd5b60006008541461085c57600854600a6000600760029054906101000a900473ffffffffffffffffffffffffffffffffffffffff1673ffffffffffffffffffffffffffffffffffffffff1673ffffffffffffffffffffffffffffffffffffffff16815260200190815260200160002060008282546108299190611079565b9250508190555061085b600760029054906101000a900473ffffffffffffffffffffffffffffffffffffffff166103ef565b5b33600760026101000a81548173ffffffffffffffffffffffffffffffffffffffff021916908373ffffffffffffffffffffffffffffffffffffffff160217905550346008819055507f3fabff0a9c3ecd6814702e247fa9733e5d0aa69e3a38590f92cb18f623a2254d33346040516108d5929190610dbb565b60405180910390a180600854106108ef576108ee6108f2565b5b50565b600760009054906101000a900460ff1615610942576040517f08c379a000000000000000000000000000000000000000000000000000000000815260040161093990610f35565b60405180910390fd5b6001600760006101000a81548160ff0219169083151502179055506001600760016101000a81548160ff021916908315150217905550600073ffffffffffffffffffffffffffffffffffffffff16600760029054906101000a900473ffffffffffffffffffffffffffffffffffffffff1673ffffffffffffffffffffffffffffffffffffffff1614610b00576000600a6000600760029054906101000a900473ffffffffffffffffffffffffffffffffffffffff1673ffffffffffffffffffffffffffffffffffffffff1673ffffffffffffffffffffffffffffffffffffffff1681526020019081526020016000208190555060008054906101000a900473ffffffffffffffffffffffffffffffffffffffff1673ffffffffffffffffffffffffffffffffffffffff166108fc6008549081150290604051600060405180830381858888f19350505050158015610a9d573d6000803e3d6000fd5b507fdaec4582d5d9595688c8c98545fdd1c696d41c6aeaeb636737e84ed2f5c00eda600760029054906101000a900473ffffffffffffffffffffffffffffffffffffffff16600854604051610af3929190610dbb565b60405180910390a1610b3b565b7fdaec4582d5d9595688c8c98545fdd1c696d41c6aeaeb636737e84ed2f5c00eda600080604051610b329291906110f2565b60405180910390a15b565b6000819050919050565b610b5081610b3d565b82525050565b6000602082019050610b6b6000830184610b47565b92915050565b600073ffffffffffffffffffffffffffffffffffffffff82169050919050565b6000610b9c82610b71565b9050919050565b610bac81610b91565b82525050565b6000602082019050610bc76000830184610ba3565b92915050565b600080fd5b6000610bdd82610b71565b9050919050565b610bed81610bd2565b8114610bf857600080fd5b50565b600081359050610c0a81610be4565b92915050565b600060208284031215610c2657610c25610bcd565b5b6000610c3484828501610bfb565b91505092915050565b60008115159050919050565b610c5281610c3d565b82525050565b6000602082019050610c6d6000830184610c49565b92915050565b610c7c81610bd2565b82525050565b6000602082019050610c976000830184610c73565b92915050565b600081519050919050565b600082825260208201905092915050565b60005b83811015610cd7578082015181840152602081019050610cbc565b60008484015250505050565b6000601f19601f8301169050919050565b6000610cff82610c9d565b610d098185610ca8565b9350610d19818560208601610cb9565b610d2281610ce3565b840191505092915050565b60006020820190508181036000830152610d478184610cf4565b905092915050565b7f4e6f2062696420746f20726566756e6400000000000000000000000000000000600082015250565b6000610d85601083610ca8565b9150610d9082610d4f565b602082019050919050565b60006020820190508181036000830152610db481610d78565b9050919050565b6000604082019050610dd06000830185610c73565b610ddd6020830184610b47565b9392505050565b7f4e487b7100000000000000000000000000000000000000000000000000000000600052602260045260246000fd5b60006002820490506001821680610e2b57607f821691505b602082108103610e3e57610e3d610de4565b5b50919050565b7f4e487b7100000000000000000000000000000000000000000000000000000000600052601160045260246000fd5b6000610e7e82610b3d565b9150610e8983610b3d565b9250828203905081811115610ea157610ea0610e44565b5b92915050565b6000610eb282610b3d565b9150610ebd83610b3d565b9250828202610ecb81610b3d565b91508282048414831517610ee257610ee1610e44565b5b5092915050565b7f41756374696f6e20616c726561647920656e6465640000000000000000000000600082015250565b6000610f1f601583610ca8565b9150610f2a82610ee9565b602082019050919050565b60006020820190508181036000830152610f4e81610f12565b9050919050565b7f42696420616d6f756e74206d7573742062652067726561746572207468616e2060008201527f3000000000000000000000000000000000000000000000000000000000000000602082015250565b6000610fb1602183610ca8565b9150610fbc82610f55565b604082019050919050565b60006020820190508181036000830152610fe081610fa4565b9050919050565b7f42696420616d6f756e742069732062656c6f772063757272656e74206869676860008201527f6573742042696400000000000000000000000000000000000000000000000000602082015250565b6000611043602783610ca8565b915061104e82610fe7565b604082019050919050565b6000602082019050818103600083015261107281611036565b9050919050565b600061108482610b3d565b915061108f83610b3d565b92508282019050808211156110a7576110a6610e44565b5b92915050565b6000819050919050565b6000819050919050565b60006110dc6110d76110d2846110ad565b6110b7565b610b3d565b9050919050565b6110ec816110c1565b82525050565b60006040820190506111076000830185610c73565b61111460208301846110e3565b939250505056fea2646970667358221220468c1b91730edccbb549e4899f152ba6940f449f9ff7c4e1ac026c8be04ac22964736f6c63430008120033",
  "linkReferences": {},
  "deployedLinkReferences": {}
}